:020000040800F2
:1000000098060020E1010008E9010008EB01000862
:10001000ED010008EF010008F101000800000000F8
:10002000000000000000000000000000F3010008D4
:10003000F501000800000000F7010008F9010008C0
:10004000FB010008FB010008FB010008FB010008A0
:10005000FB010008FB010008FB010008FB01000890
:10006000FB010008FB010008FB010008FB01000880
:10007000FB010008FB010008FB010008FB01000870
:10008000FB010008FB010008FB010008FB01000860
:10009000FB010008FB010008FB010008FB01000850
:1000A000FB010008FB010008FB010008FB01000840
:1000B000FB010008FB010008FB010008FB01000830
:1000C000FB010008FB010008FB010008FB01000820
:1000D000FB0100085B060008FB010008FB010008AB
:1000E000FB010008FB010008FB010008FB01000800
:1000F000FB010008FB010008FB010008FB010008F0
:10010000FB010008FB010008FB010008FB010008DF
:10011000FB010008FB010008FB010008FB010008CF
:10012000FB010008FB010008FB010008FB010008BF
:1001300000F002F800F045F80AA090E8000C8244B4
:100140008344AAF10107DA4501D100F03AF8AFF291
:10015000090EBAE80F0013F0010F18BFFB1A43F0A5
:10016000010318474423000064230000103A24BF11
:1001700078C878C1FAD8520724BF30C830C144BF0C
:1001800004680C607047000000230024002500264E
:10019000103A28BF78C1FBD8520728BF30C148BFEA
:1001A0000B607047782901F07F83632901F0CF84C9
:1001B000732901F0D484002070471FB51FBD10B50E
:1001C00010BD01F0E7FC1146FFF7F7FF00F028F83B
:1001D00001F005FD03B4FFF7F2FF03BC00F0AEF938
:1001E0000948804709480047FEE7FEE7FEE7FEE7CB
:1001F000FEE7FEE7FEE7FEE7FEE7FEE70448054907
:10020000054A064B70470000210300083101000831
:1002100098000020980600209802002098020020F4
:10022000482000F08DFE022000F0FAF84FF4614003
:1002300000F091F900F050FE00F0E8FE01E000F05F
:100240000FFFFCE70CB50020019000906B480068A0
:1002500040F480306949086000BF6848006800F4D5
:10026000003000900198401C0190009818B9019846
:10027000B0F5A06FF1D16148006810F4003F02D0E2
:100280000120009001E0002000900098012842D158
:100290005B48006840F01000594908600846006853
:1002A00020F0030008600846006840F00200086083
:1002B00052484068514948600846406848600846CE
:1002C000406840F4806048600846406820F47C1034
:1002D00048600846406840F4E810486008460068F6
:1002E00040F08070086000BF4448006810F0007F54
:1002F000FAD04248406820F0030040494860084670
:10030000406840F00200486000BF3C48406800F090
:100310000C000828F9D10CBD10B5FFF793FF10BDF4
:1003200010B53648006840F00100344908600846BE
:1003300040683449084031494860084600683249FD
:1003400008402E4908600846006820F480200860B4
:100350000846406820F4FE0048604FF41F008860A3
:10036000FFF7DAFF4FF000602849086010BD10B5B4
:10037000002100200022214B5B6803F00C0121B119
:10038000042906D0082928D107E0214B214C2360FD
:1003900027E01F4B1F4C236023E0184B5B6803F4DE
:1003A0007010164B5B6803F48032022303EB90401D
:1003B00022B9194B4343174C23600DE00F4B5B6888
:1003C00013F4003F04D0144B4343124C236003E06A
:1003D0000F4B43430F4C236003E00D4B0D4C236048
:1003E00000BF00BF054B5B68C3F303130B4CE15C1C
:1003F000084B1B68CB40074C236010BD0010024027
:10040000002002400000FFF8FFFFF6FE08ED00E0CC
:1004100000127A000000002000093D0004000020C6
:100420003F4A1070072222EA00003E4A11684FF648
:10043000FF02114041EA00213B4A1143394A116051
:100440007047F0B50346364E3678C6F10406F4B26E
:10045000334E37780F2646FA07F503FA04F6F0B262
:1004600001EA050630430607300E304EB0545611EF
:100470004FF0E02707EB8606D6F8006102F01F0771
:100480003E4357114FF0E02C0CEB8707C7F8006193
:10049000F0BD70B503460846CE1701EB9676C6F35D
:1004A0008704CE1701EB9676B610A1EB8606B6064A
:1004B000350E1F48806940F001001D4EB0614FEAC3
:1004C000B63050F8240003FA05F63043194E46F8CA
:1004D00024001948006801268E403043164E3060D3
:1004E000301D06680120884006431348001D066041
:1004F00012F0010F07D0001D006801268E40304326
:100500000D4E0836306012F0020F08D00A480C3049
:10051000066801208840064307480C30066070BD1D
:10052000140000200CED00E00000FA0500E400E0FB
:10053000001002400800014000040140014600BFD5
:10054000704700BF4C4A128812F0400FFAD04A4B55
:100550001B1D188070472DE9F14F009801F07FFDB9
:1005600080460022454B01F08DFD064632460B4683
:100570000020434901F0EEFB04460D462046294683
:1005800001F040FD1FFA80FA504601F068FD064672
:1005900022462B4601F074FE804601F033FD1FFA1F
:1005A00080FB0BEB0A101FFA80FA3648806944F290
:1005B00004010843334988613348006820F47F60B0
:1005C000314908600846006840F0B00008600846FD
:1005D000006840F4006008602B480830006840F470
:1005E000806029490831086023480830A0F800A03D
:1005F000001D008842F20C0108431F490C3108809D
:100600000846008840F02000088025220321084683
:10061000FFF717FFBDE8F88F00BF1749098811F0F1
:10062000400FFAD01449091D0880704700B50346F1
:100630001A4603E01078FFF7EFFF521C10780028ED
:10064000F8D100BD00BF0C48008810F0200FFAD090
:100650000948001D0088C0B2704710B506480088E0
:1006600010F0200F06D0FFF7EDFF0446214607A04B
:1006700001F0A8F810BD0000003801400000304033
:10068000882A9141001002400408014046726F6DB3
:1006900020436F6D70757465723A25630A0000001F
:1006A00070B50446002524E014F0800F05D04FF407
:1006B0000041F94800F011FE04E04FF40041F64813
:1006C00000F00DFEC82000F072FC4FF40051F2481B
:1006D00000F005FEC82000F06AFC4FF40051EE481F
:1006E00000F0FBFDC82000F062FC6006040E681CF0
:1006F000C5B2082DD8DB70BD70B500251FE06006BF
:10070000040E4FF40051E44800F0E9FDC82000F069
:100710004EFC4FF48041E04800F0C5FD012801D1B6
:1007200044F00104C82000F042FC4FF40051DA48C4
:1007300000F0D3FDC82000F03AFC681CC5B2082DBB
:10074000DDDB204670BD70B504467E2000EA440023
:1007500040F080054FF48051CF4800F0C0FD28469E
:10076000FFF79EFFFFF7C8FF06464FF48051CA48C7
:1007700000F0B3FD304670BD70B504460D467E20D6
:1007800000EA44064FF48051C34800F0A8FD30460B
:10079000FFF786FF2846FFF783FF4FF48051BE48DE
:1007A00000F09BFD70BD70B505460C462846FFF76E
:1007B000CAFF064646EA04012846FFF7DDFF70BD82
:1007C00070B505460C462846FFF7BDFF064626EAEB
:1007D00004012846FFF7D0FF70BD10B51420FFF7C5
:1007E000B2FF044614F0030F03D103211420FFF7D6
:1007F000DAFF10BD10B503211420FFF7E1FF10BD93
:1008000010B54FF48071A44800F067FD012000F09E
:10081000CEFB4FF48071A04800F061FD012000F094
:10082000C6FB4FF480719C4800F057FD012000F09A
:10083000BEFB0F210120FFF79FFF00BF0120FFF744
:1008400082FF10F0100FF9D1012000F0B0FB3D2124
:100850001120FFF791FF1E212D20FFF78DFF0021B2
:100860002C20FFF789FF8D212A20FFF785FF3E21ED
:100870002B20FFF781FF40211520FFF77DFF10BDE2
:1008800010B50446412C24D108210846FFF798FFF3
:100890003D211120FFF770FF86211720FFF76CFF25
:1008A0007F212620FFF768FF1E212D20FFF764FF20
:1008B00000212C20FFF760FF8D212A20FFF75CFF2D
:1008C0003E212B20FFF758FF022000F070FBFFF7BE
:1008D00084FF10BD2DE9FC5F064691461F46DDF8FA
:1008E00030A000200190834600900C2E06D00E2EE2
:1008F00009D14FF0120B1020009005E04FF0770B5C
:100900003020009000E000BF00BF4BF080010220CB
:10091000FFF732FF80210420FFF752FF0021012062
:10092000FFF72AFF80210A20FFF73DFF002504E0A2
:10093000795D0920FFF720FF6D1C4D45F8D3314646
:100940000120FFF719FF0C2E03D180210D20FFF7A6
:100950002AFF4FF47A7500BF0420FFF7F4FE044627
:100960006D1E2DB114F0010F02D100980442F3D096
:1009700080210D20FFF724FF9DB30620FFF7E3FE43
:1009800010F01B0F2ED10120019004EA0B0010F093
:10099000010F01D0022001900C2E25D10A20FFF773
:1009A000D2FE04460C20FFF7CEFE00F00708B8F197
:1009B000000F05D0601E08EBC000CAF8000002E07E
:1009C000E000CAF8000004B90124122C00DD122452
:1009D000002504E00920FFF7B6FE78556D1CA542FE
:1009E000F8D301E00020019080210C20FFF7DBFE0E
:1009F00000210120FFF7C0FE0198BDE8FC9F70B503
:100A000088B006460C4608210846FFF7D9FE0721A4
:100A10000D20FFF7B1FE03211420FFF7C4FE8DF86F
:100A20000C6002A803AB012203A900900C20FFF781
:100A300051FF0546012D06D19DF80C0020709DF850
:100A40000D00607001E005B90025284608B070BDB2
:100A5000F0B587B00546002708210846FFF7B0FE2D
:100A600000210D20FFF788FE80210E20FFF7A8FE51
:100A700093208DF8080020208DF8090001A802AB12
:100A8000022202A900900C20FFF724FF0646012E47
:100A900013D100240AE00000000C014002A8005D10
:100AA000285502A8005D4740601CC4B2042CF5DB49
:100AB00002A8005DB84200D0002680210E20FFF77A
:100AC00072FE304607B0F0BD2DE9F041074688467A
:100AD000154604210520FFF773FE00210120FFF7D2
:100AE0004BFE80210A20FFF75EFE002405E0395D01
:100AF0000920FFF741FE601CC4B24445F7DB032127
:100B00000120FFF739FEFF2400BF0520FFF71BFE81
:100B10000646601EC4B214B116F0040FF5D02220B0
:100B2000FFF711FE28702120FFF70DFE6870BDE869
:100B3000F08170B588B0054693208DF80C007020C8
:100B40008DF80D0000208DF8120000240BE0295DC7
:100B500003AAA01C11549DF81200295D48408DF88D
:100B60001200601CC4B2042CF1DB0DF1130207214A
:100B700003A8FFF7A9FF08210846FFF721FE02A8F6
:100B800003AB092203A900900C20FFF7A3FE064641
:100B9000012E00D100E00026304608B070BD2DE9DE
:100BA000F04387B006460F46904699468DF8086098
:100BB0008DF80970002406E018F8041002AAA01CA1
:100BC0001154601CC4B2062CF6DB002407E019F8AF
:100BD000041002AA04F108001154601CC4B2062CCF
:100BE000F5DB01A802AB0C2202A900900E20FFF752
:100BF00071FE05469DF8081067A0019A00F0E2FD1D
:100C0000012D05D10820FFF79EFD10F0080F00D13F
:100C10000025284607B0BDE8F083F0B587B006464A
:100C20000F46A0208DF808008DF809600DF10A022A
:100C3000022102A8FFF748FF01A802AB042202A983
:100C400000900C20FFF746FE0546012D08D10198C3
:100C5000042805D19DF8080000F00F000A2800D0F4
:100C60000025012D17D1002404E0385D02A90855A4
:100C7000601CC4B2102CF8DB06AA102102A8FFF7F2
:100C800023FF01A802AB122202A900900C20FFF75B
:100C900021FE05460025284607B0F0BDF0B587B017
:100CA00005460E4630208DF808008DF809500DF1EC
:100CB0000A02022102A8FFF707FF01A802AB0422E3
:100CC00002A900900C20FFF705FE0746012F0CD16A
:100CD0000198902809D1002404E002A8005D305555
:100CE000601CC4B2102CF8DB00E00027384607B0C7
:100CF000F0BD00B587B050208DF8080000208DF8B9
:100D000009000DF10A02022102A8FFF7DDFE01A889
:100D100002AB042202A900900C20FFF7DBFD0120AA
:100D200007B000BD8CB036E003A95220FFF767FE84
:100D30002CE09DF80F009DF80E10CDE900109DF8F5
:100D40000D309DF80C201AA104A800F047FD04A95D
:100D50001DA000F037FD03A8FFF7EBFE01280ED120
:100D60001BA000F02FFD03AB0022A0216020FFF7A5
:100D700016FF01280AD11AA000F024FD06E003A8FE
:100D8000FFF7D7FE10B91CA000F01CFD03A8FFF769
:100D90005FFE0128CDD0C7E7627566666572203DAB
:100DA000202558204C656E203D2025580A00000063
:100DB0000D0A49443A202530325825303258253022
:100DC000325825303258000025730D0A000000000B
:100DD000737563636573732073656C6563740A0070
:100DE00073756363657373205063644175746853EE
:100DF000746174650A0000006661696C2073656C3B
:100E00006563740A0000000008B50121082000F0A5
:100E10006FFC4FF48050ADF8000003208DF8020005
:100E200010208DF803006946364800F0ABF936A073
:100E300000F0C8FC0121082000F05AFC4FF40050DB
:100E4000ADF8000003208DF8020010208DF803009B
:100E500069462C4800F096F92DA000F0B3FC012162
:100E6000082000F045FC4FF40040ADF800000320DE
:100E70008DF8020010208DF803006946214800F02B
:100E800081F926A000F09EFC0121082000F030FC32
:100E90004FF48040ADF8000004208DF8030069464F
:100EA000184800F06FF920A000F08CFC0121082008
:100EB00000F01EFC4FF48070ADF8000003208DF8A8
:100EC000020010208DF8030069460E4800F05AF920
:100ED00018A000F077FC08BD10B513A000F072FC5C
:100EE000FFF792FF4FF48071064800F0F6F94FF4D7
:100EF0008051044800F0F1F9FFF782FC4120FFF730
:100F0000BFFC10BD000C0140204353204F4B0A0092
:100F10002053434B204F4B0A00000000204D4F53FD
:100F200049204F4B0A000000204D49534F204F4BA2
:100F30000A00000020525354204F4B0A00000000CA
:100F40004FF0E021096921F004014FF0E022116126
:100F5000C21700EB5272C2F3C7022A4B1A7019462D
:100F6000097801EB4102C2EBC1114FF6FF7202EAB0
:100F7000C101254A118070470146234A12884A431D
:100F80004FF0E0235A6100229A6101221A6100BFEA
:100F90004FF0E022106910F0010F02D010F4803FF2
:100FA000F6D000224FF0E0231A619A6170470146A3
:100FB000144A12784A434FF0E0235A6100229A61A2
:100FC00001221A6100BF4FF0E022106910F0010FFA
:100FD00002D010F4803FF6D000224FF0E0231A61D7
:100FE0009A61704708B50021009102E00099491C00
:100FF000009100EBC00101EB0011009AB2EB810FF0
:10100000F4D308BD1C0000201E0000202948806980
:1010100040F00800274988610846806940F0400098
:10102000886125480068244908600846006840F443
:1010300040100860214800682049086008460068A0
:1010400040F4401008601C480C3000681A490C310C
:1010500008601A480C30006818490C310860704765
:1010600010B515480C30006840F0200012490C31D2
:10107000086012480C30006840F020000F490C3125
:10108000086040F6B830FFF777FF0B480C30006877
:1010900009490C31086009480C30006807490C31D7
:1010A000086007A000F08EFB40F6B830FFF764FF41
:1010B00010BD000000100240000C0140001801406B
:1010C00061610A0010B50446CA48844208D1012172
:1010D000042000F027FB0021042000F023FB46E061
:1010E000C548844208D10121082000F01BFB0021E3
:1010F000082000F017FB3AE0C048844208D10121E3
:10110000102000F00FFB0021102000F00BFB2EE060
:10111000BB48844208D10121202000F003FB0021BC
:10112000202000F0FFFA22E0B648844208D10121D5
:10113000402000F0F7FA0021402000F0F3FA16E01A
:10114000B148844208D10121802000F0EBFA00214F
:10115000802000F0E7FA0AE0AC48844207D1012180
:10116000801500F0DFFA0021A01500F0DBFA10BDB9
:1011700010B50121084600F0D5FA0021012000F049
:10118000D1FA10BD2DE9F0410246002500260020CD
:1011900000230024002791F803C00CF00F0591F8FC
:1011A00003C01CF0100F03D091F802C04CEA0505F3
:1011B00091F800C0BCF1000F31D0146800202BE082
:1011C0004FF0010C0CFA00F3B1F800C00CEA030672
:1011D0009E4220D183004FF00F0C0CFA03F7BC4362
:1011E00005FA03FC4CEA040491F803C0BCF1280F93
:1011F00006D14FF0010C0CFA00FCC2F814C00AE052
:1012000091F803C0BCF1480F05D14FF0010C0CFA66
:1012100000FCC2F810C0401C0828D1D31460B1F8FB
:1012200000C0BCF1FF0F34DD546800202EE000F157
:10123000080C4FF0010808FA0CF3B1F800C00CEAF2
:1012400003069E4221D183004FF00F0C0CFA03F7E6
:10125000BC4305FA03FC4CEA040491F803C0BCF15A
:10126000280F05D100F1080C08FA0CF8C2F8148018
:1012700091F803C0BCF1480F07D100F1080C4FF002
:10128000010808FA0CF8C2F81080401C0828CED3D8
:101290005460BDE8F0814FF6FF710180022181703A
:1012A0000421C17070470246002093680B4201D0B0
:1012B000012000E0002070470146886880B2704736
:1012C00002460020D3680B4201D0012000E000203C
:1012D00070470146C86880B270470161704741613C
:1012E00070470AB1016100E041617047C160704719
:1012F0004FF480320A43826181618261826982692E
:10130000704702460020424B18684FF68073184021
:1013100040EA021008433E4B186070473D49C861DF
:101320007047F0B50A46002300240021002500F094
:101330000046B6F1004F02D1354EF16901E0344E5E
:101340007168C0F3034583B200F44016B6F5401F40
:1013500008D121F070612E4E766826F070662C4F11
:101360007E6012E000F48016B6F5801F06D10326D9
:1013700006FA05F4A14341F0706106E0460D36011E
:1013800003FA06F6B14341F0706122B1460D360111
:1013900003FA06F6314300F00046B6F1004F02D1E1
:1013A0001B4EF16101E01A4E7160F0BD30B50022B4
:1013B0008B071C0F0F2303FA04F2154B08338C1014
:1013C00053F824309343124C08348D1044F82530E0
:1013D00023468C1053F824308C07240F00FA04F4B1
:1013E00023430B4C08348D1044F8253030BD0A4996
:1013F0000860704700080140000C014000100140E7
:101400000014014000180140001C01400020014070
:101410000000014000002042DC002042DD4800685E
:1014200040F00100DB49086008464068DA4908409E
:10143000D849486008460068D8490840D54908603E
:101440000846006820F4802008600846406820F4C0
:10145000FE0048604FF41F0088607047CD4909685E
:1014600021F48031CB4A11601146096821F48021B2
:101470001160B0F5803F03D0B0F5802F0ED106E0AB
:10148000C449096841F48031C24A116007E0C1498A
:10149000096841F4A021BF4A116000E000BF00BF0D
:1014A000704710B501460022002300204A11012A8E
:1014B00002D1B84C236806E0022A02D1B54C236A57
:1014C00001E0B44C636A01F01F02012494401C4205
:1014D00001D0012000E0002010BD38B500200090B0
:1014E0000024002500BF3120FFF7DBFF05460098F0
:1014F000401C00900098B0F5A06F01D0002DF2D0F4
:101500003120FFF7CEFF08B1012400E0002420467F
:1015100038BD014600209F4A106820F0F80040EADC
:10152000C100106070479E49086070470246002065
:10153000984B586820F47C1042EA01031843954BFD
:101540005860704796490866704701460020914AE6
:10155000506820F003000843506070478D48406891
:1015600000F00C007047014600208A4A506820F0C5
:10157000F00008435060704701460020854A5068DB
:1015800020F4E06008435060704701460020814A23
:10159000506820F4605040EAC1005060704729B1A3
:1015A0007C4A527A02437B4B5A7204E0794A527A5F
:1015B0008243784B5A7270477A49086070470146F7
:1015C0000020744A506820F440400843506070473F
:1015D0000021754A11706F4A82F82010012802D04C
:1015E000042808D103E001216F4A117004E00521AD
:1015F0006D4A117000E000BF00BF70476B49086082
:1016000070476449096A0143624A11627047674939
:1016100044390860704730B50021002200240023BF
:101620005C4D6D6805F00C0121B1042905D0082935
:1016300023D105E05E4D056022E05D4D05601FE0B1
:10164000544D6D6805F47012524D6D6805F4803488
:10165000022505EB92421CB9564D554305600BE03F
:101660004C4D6D6815F4003F03D0524D5543056055
:1016700002E04F4D5543056002E04D4D056000BF4F
:1016800000BF444D6D6805F0F00109094A4D6B5CDF
:101690000568DD4045603F4D6D6805F4E061090A6D
:1016A000454D6B5C4568DD4085603A4D6D6805F4DD
:1016B0006051C90A404D6B5C4568DD40C560354DE1
:1016C0006D6805F44041890B3C4D6B5CC568B5FB0A
:1016D000F3F5056130BD29B12E4A526902432D4B05
:1016E0005A6104E02B4A526982432A4B5A6170477F
:1016F00029B1284A92690243264B9A6104E0254A9F
:1017000092698243234B9A61704729B1214AD26979
:101710000243204BDA6104E01E4AD26982431D4B2A
:10172000DA61704729B11B4AD2680243194BDA606B
:1017300004E0184AD2688243164BDA60704729B138
:10174000144A12690243134B1A6104E0114A1269E8
:101750008243104B1A617047144940390860704742
:101760000F49C86470470B49C87170470948406AFF
:1017700040F0807007494862704701460020054AE2
:1017800092680A4201D0012000E000207047014920
:1017900088727047001002400000FFF8FFFFF6FE5D
:1017A00000004242D80042422010024080044242DF
:1017B00000127A0000093D002000002030000020C7
:1017C000704700000FB4044910B503AA029800F056
:1017D000CBF910BC5DF814FB180000200FB41CB549
:1017E000074B06AA7B4469460090059800F08DF9E6
:1017F0000020694600F09CF91CBC5DF814FB000059
:101800004903000070B5044685690068C10601D52A
:10181000302600E02026C00708D070BDD4E90121A1
:1018200030469047206A00F1010020626D1EF5D518
:1018300070BD70B5044685690078C00708D170BDD9
:10184000D4E9012120209047206A00F101002062A4
:101850006D1EF5D570BD70B50C460546012A05D044
:101860002878800600D5EA69002302E0012305E01C
:101870005B1C934202D2E05C0028F9D1A869E6180B
:10188000C01AA861286A184428622846FFF7BAFFE0
:1018900004E0D5E9012114F8010B9047B442F8D3D4
:1018A0002846FFF7C6FF70BD70B504460D462146B9
:1018B0001068AFF300802188090502D5104A7A44E8
:1018C00002E00F4A7A440E32002104F1240307E0BB
:1018D00000F00F064FEA1010965D5E5401F1010111
:1018E0000028F5D103462078000704D5702D02D0DA
:1018F00009B1113202232046BDE8704000F0A4B8BF
:10190000AA0B00002DE9F05F894604464FF0000A5B
:10191000DFF828B1FB44C0F820A02046E1688847E2
:1019200000287CD0252806D0D4E901219047206AE0
:10193000401C2062F1E700255F462046E1688847A9
:101940002028064608DB312E06D207EB060010F8E9
:10195000200C08B10543F0E7A80701D525F00405E0
:10196000C4F81CA00027C4F818A02A2E09D03046BD
:1019700000F040F938B304EB8708303EC8F818602F
:1019800019E059F8041B204604EB87029161E168D5
:101990008847012F064618D1E069002820DA25F093
:1019A00020051DE0D8F8180000EB800006EB400091
:1019B0003038C8F818002046E1688847064600F02D
:1019C00019F90028EED1012F0AD02E2E08D1204679
:1019D000E16888477F1C0646022F45F02005C4DBDE
:1019E000A069002803DA404245F00105A061E8073C
:1019F00001D025F0100596B1A6F14100192802D8B2
:101A0000203645F400654A463146204625604D465D
:101A1000FEF7C8FB60B1012807D0ED1D00E009E02A
:101A200025F0070000F1080977E705F1040974E7DC
:101A3000304679E7206ABDE8F09F00007C0B00008B
:101A400070477047704770472DE9F0470D4699463B
:101A50009246044600F124080168880604D5E0692E
:101A600021F01001216000E00120A84202DDA0EB7E
:101A7000050700E00027A16907EB050202EB09005A
:101A8000A1EB0000A0612078C00602D42046FFF739
:101A9000B9FE002608E0D4E901211AF806009047B3
:101AA000206A401C761C20624E45F4DB2078C0067C
:101AB0000AD52046FFF7A6FE06E0D4E90121302032
:101AC0009047206A401C2062381EA7F10107F4DC11
:101AD00007E0D4E9012118F805009047206A401C6E
:101AE0002062281EA5F10105F3DC2046FFF7A1FEC8
:101AF0002078000602D50220BDE8F0870120FBE730
:101B000001694A1C02610878704700B58FB0CDE9C1
:101B100001310021059105497944CDE903101146B1
:101B20006846FFF7EFFE0FB000BD0000E5FFFFFFC6
:101B30000A6802F8010B0A60704710B5436913B1D7
:101B4000AFF3008001E0FFF786FE012010BD1278A0
:101B500000F124010A7000224A700122EDE71168A9
:101B60004FF0FF32E9E70000074B70B50D467B44AC
:101B7000FFF7CBFF0446284600F008F810B14FF0FD
:101B8000FF3070BD204670BDD1E9FFFF007B00F043
:101B900080007047754600F029F8AE46050069469A
:101BA000534620F00700854618B020B5FEF726FB07
:101BB000BDE820404FF000064FF000074FF000084E
:101BC0004FF0000B21F00701AC46ACE8C009ACE8CF
:101BD000C009ACE8C009ACE8C0098D4670470446AE
:101BE000AFF300802046FEF7F5FA0000004870478A
:101BF0003400002030380A2801D20120704700202C
:101C00007047000010B591EA030F48BF83F000430E
:101C100000F14A83841A71EB030C05D2121943EBCD
:101C20000C03001B61EB0C01DFF824E14FEA1154B7
:101C3000A4EB135C1EEA430F18BF9EEA445F73D007
:101C400023EA0E03DCF1200E21EA045143F4801351
:101C500032D322FA0CFE10EB0E0023FA0CFE41EBFD
:101C60000E01CCF1200E03FA0EFE10EB0E0051F126
:101C70000001B1F5801FCCF1200E32D201EB0451EE
:101C800012FA0EF2BDE8104058BF7047401C38BF32
:101C90005FEA420218BF7047002814BF20F001001D
:101CA00041F100014FEA410313F5001F38BF7047AF
:101CB000A1F1C04100F0DEBA012A43EB0302ACF10E
:101CC000200CDCF11F0E32BF4FF0000E23FA0CF394
:101CD00010EB030041EB0451B4EB115FD0D0A1EB4A
:101CE000045101F5801149085FEA300001EB04510D
:101CF0000ED350F1000038BF12FA0EFE08D1BDE835
:101D00001040C9E7401C38BF5FEA4202CAD1C3E7AE
:101D1000BDE810404FEA410313F5001F38BF70477C
:101D2000A1F1C04100F0A6BA9EEA445F08D011EAD2
:101D30005E0FBDE8104004BF01F000410020704775
:101D4000BDE8104070B500F047FA00BF64FBBE3E2E
:101D50000000E0FF2DE9C04130B4DFF8A0C23CEA4A
:101D6000111418BF3CEA131400F0EC8081EA03055B
:101D70001CEA111444EAD57418BF1CEA131500F0CC
:101D8000C780A4EB05044FF0004545EAC12145EAB0
:101D9000C32341EA505143EA525304F17F749942FC
:101DA00004F500344FEAC0204FEAC22208BF904237
:101DB00000F09C804FEA13650FF24016765D4FEA03
:101DC000134506FB05F7C7F1807706FB07F74FEAD7
:101DD000D737A7FB03687642C8F58038A7FB06CE45
:101DE00038BFA8F1010807FB08E64FF0000EA6FB7C
:101DF000028CE6FB03CEDCF1000CCEF1004E38BFC6
:101E0000AEF1010EA6FB0C584FF000074FF0000595
:101E1000E6FB0E87A1FB08C6A0FB07CE16EB0E065D
:101E200045F10005E1FB076515F1E04E7EBFA4F525
:101E300080345FEA46066D4116F1800745F10005E2
:101E40004FEA17274FEA066647EA0567A6F1DE461E
:101E5000B6F1805F4FEA15251FD9384624F0010CF2
:101E600005EBC471BCF1FE6F01EB0C1102D8F0BCA4
:101E7000BDE8008124425CBF01F5801E9EEAC47F5C
:101E800002D4F0BCBDE80081244238D4F0BCA1F1FA
:101E9000C041BDE8004100F0EDB94FEAD22242EA6C
:101EA00043524FEAD323A7FB02864FEAD02040EAF1
:101EB000415007FB03661EEA0E0F4FEAD12105FBD6
:101EC000026658BFA6EB0056B6EB00564FEA520E1C
:101ED0004EEAC37E18EB0E0E56EB530EBDD518EB33
:101EE00002085E417F1C55F10005B6E74FF48015EE
:101EF0004FF000074FF000064FF00008ADE7F0BCD0
:101F00004FF0000001F1C04101F00041BDE8008147
:101F100011EA0C1F0CEA131500D00CE013EA0C1F99
:101F200000F025804FF00000F0BC81EA030101F0D1
:101F30000041BDE80081F0BCBDE8004181EA030139
:101F400000F098B9F0BCBDE8004170B500F044F96C
:101F5000097EFC3E00F007B881EA03014FF0000063
:101F600001F00041704781EA030100F083B9F0BC41
:101F7000BDE800414FF0000021497047FFFDFBF92B
:101F8000F7F5F4F2F0EEEDEBE9E8E6E4E3E1E0DEAC
:101F9000DDDBDAD8D7D5D4D3D1D0CFCDCCCBCAC81E
:101FA000C7C6C5C4C2C1C0BFBEBDBCBBBAB9B8B745
:101FB000B6B5B4B3B2B1B0AFAEADACABAAA9A8A838
:101FC000A7A6A5A4A3A3A2A1A09F9F9E9D9C9C9B06
:101FD0009A999998979796959594939392919190B1
:101FE0008F8F8E8E8D8C8C8B8B8A89898888878742
:101FF0008685858484838382828181800000FF07B7
:102000000000F87F4FEA1153A3F58063D3F11E035C
:10201000A8BFD3F1200C08DB4FF0004242EAC122F6
:1020200052EA505232FA03F0704709420BD4102B97
:10203000C4BF0020704703F5787CBCF1FF3F05D09A
:102040004FF0FF3070474FF00000704770B500F060
:10205000C3F800BF4992248000207047F0E7B0FA2F
:1020600080F310FA03F10AD0C3F11D0303F5806376
:102070004FEA41504FEA035202EBD12170474FF033
:1020800000007047DFF848C170B51CEA111E1EBF82
:102090001CEA13159EEA0C0F95EA0C0F00F06F80F6
:1020A00081EA030423EA4C134EEAD47E21EA4C1160
:1020B00041F4801143F48013AE44A1FB024CA0FB19
:1020C0000365AEF17F7E361955EB0C05A1FB034C81
:1020D0004CF10003A0FB021C16EB0C06654153F10A
:1020E0000003094218BF46F0010613F4007F0BD12C
:1020F0004FEA03314FEA0530340341EA155140EA13
:1021000016506FF003020AE04FEAC3214FEAC520E0
:10211000F40241EA555140EA56506FF0020202EBD8
:102120002E4201EB025585EACE710AD05FEA440CDB
:1021300018BF24F0004450F1000041F1000120EAF2
:10214000D47040F2FE7C624500D270BDA84214BF3C
:102150004FF080444FF04044002E08BF0024BEF1F1
:10216000806FA8BFA1F1C041BDE8704080F28280BD
:102170004FF0000001F1C04101F0004170479EEABC
:102180000C0F0CEA131518BF95EA0C0F06D04FF090
:10219000000081EA030E0EF0004170BD00F01CF853
:1021A0008900013E00F007B800F009B84FEA430C7F
:1021B0005FEA5C5C08D081EA030100F05BB84FEA9B
:1021C000410C5FEA5C5CF6D14FF0000001497047BA
:1021D0000000FF070000F87F0EF1020E2EF0030E44
:1021E0005EF8046B364205D4012A43EB030515F56E
:1021F000001F12D8012841EB010C1CF5001F0CD860
:102200000ED14FEAD17C15F5001F0CEB4C0C0CF1F4
:10221000020C08BF4CEBD37C04E04FF0080C01E04B
:102220004FEAD37C0CEB4C0526FA05F606F00706C0
:10223000B6F1040C06D20EEB860CBDE870404CF0F3
:10224000010C6047DFE80CF0090B02024FF000417F
:102250004FF00000A1F5002170BD1946104601287D
:1022600051EB010418BFD4F5001484BF002001F025
:10227000004170BD0808A0F500114FEA3101704718
:1022800091EA030F10B581F000413FF5C3AC83F034
:10229000004300F009B8000010B591EA030F48BFF1
:1022A00083F000433FF5B6AC841A71EB030C07D200
:1022B00012198CF0004C43EB0C03001B61EB0C017A
:1022C000DFF8A4E14FEA1154A4EB135C1EEA430FBC
:1022D00018BF9EEA445F00F0B08023EA6E035242CA
:1022E00021EA0451C3EB6E0338BF5B1EDCF1200E04
:1022F00025D322FA0CFE10EB0E0043FA0CFE41EB44
:102300000E01CCF1200E03FA0EFE10EB0E0051F17F
:102310000001CCF1200E29D412FA0EF201EB045187
:10232000BDE8104058BF7047401C1CBFB2F1004FC1
:10233000704700280CBF491C20F00100704712EBC9
:10234000020E43EB030218BF4FF0010E4EEA4202A9
:10235000ACF1200CDCF11E0E54D943FA0CFE10EB4C
:102360000E0051F1FF31CCF11E0ED5D50EF1010E4C
:1023700012FA0EFE404141EB010101EB445C5FEAC1
:102380005C5C10D910EBDE7001EB045138BFBEF17C
:10239000004FBDE8104018BF704700280CBF491C13
:1023A00020F00100704730D24FEAD42C11F5001113
:1023B00024F400641BD0B1FA81F20B3AA41AA41ED3
:1023C000D2F12003914030FA03F31943904001EB1E
:1023D000CC71002C01EB0451BDE81040A8BF704740
:1023E00001F1C0414FF0000001F000417047B0FA28
:1023F00080F310FA03F100D110BDE41A173C480530
:10240000C90AE4E701EB045110BD491001EB045186
:10241000BDE810404FEA300002E04FF00001704785
:102420004A0008BF0042F8D0B2F5001F28BF70472D
:1024300001F000414FF0000070479EEA445F07D072
:1024400011EA5E0FBDE8104004BF00210020704774
:10245000BDE8104070B5FFF7BFFE00BF40DFF63E9D
:1024600083F00041104670470000E0FF3031323306
:1024700034353637383941424344454640305800B8
:1024800030313233343536373839616263646566EA
:102490004030780004000008000000000000000246
:1024A0000001000010000000C82400080000002007
:1024B000340000006C010008FC24000834000020F7
:1024C000640600008801000800A24A040000000021
:1024D00000000000010203040607080900000000D4
:1024E00000000000000000000000000001020304E2
:0C24F000010203040607080902040608A4
:0400000508000131BD
:00000001FF
